{
  "contractName": "UserContract",
  "abi": [
    {
      "anonymous": false,
      "inputs": [
        {
          "indexed": true,
          "internalType": "address",
          "name": "userAddress",
          "type": "address"
        },
        {
          "indexed": false,
          "internalType": "string",
          "name": "username",
          "type": "string"
        }
      ],
      "name": "UserCreated",
      "type": "event"
    },
    {
      "anonymous": false,
      "inputs": [
        {
          "indexed": true,
          "internalType": "address",
          "name": "userAddress",
          "type": "address"
        },
        {
          "indexed": false,
          "internalType": "string",
          "name": "field",
          "type": "string"
        },
        {
          "indexed": false,
          "internalType": "string",
          "name": "value",
          "type": "string"
        }
      ],
      "name": "UserUpdated",
      "type": "event"
    },
    {
      "inputs": [
        {
          "internalType": "string",
          "name": "_username",
          "type": "string"
        },
        {
          "internalType": "string",
          "name": "_password",
          "type": "string"
        }
      ],
      "name": "createUser",
      "outputs": [],
      "stateMutability": "nonpayable",
      "type": "function"
    },
    {
      "inputs": [
        {
          "internalType": "string",
          "name": "_username",
          "type": "string"
        },
        {
          "internalType": "string",
          "name": "_password",
          "type": "string"
        }
      ],
      "name": "updateUser",
      "outputs": [],
      "stateMutability": "nonpayable",
      "type": "function"
    },
    {
      "inputs": [],
      "name": "getUsername",
      "outputs": [
        {
          "internalType": "string",
          "name": "",
          "type": "string"
        }
      ],
      "stateMutability": "view",
      "type": "function"
    },
    {
      "inputs": [],
      "name": "getPassword",
      "outputs": [
        {
          "internalType": "string",
          "name": "",
          "type": "string"
        }
      ],
      "stateMutability": "view",
      "type": "function"
    }
  ],
  "bytecode": "0x608060405234801561001057600080fd5b50610b97806100206000396000f3fe608060405234801561001057600080fd5b506004361061004c5760003560e01c8063681f3e6d1461005157806387b162b51461006f578063cc8e23941461008b578063dd4a2425146100a9575b600080fd5b6100596100c5565b60405161006691906104f9565b60405180910390f35b61008960048036038101906100849190610664565b61017a565b005b61009361023a565b6040516100a091906104f9565b60405180910390f35b6100c360048036038101906100be9190610664565b6102ef565b005b6060600080815481106100db576100da6106dc565b5b906000526020600020906002020160000180546100f79061073a565b80601f01602080910402602001604051908101604052809291908181526020018280546101239061073a565b80156101705780601f1061014557610100808354040283529160200191610170565b820191906000526020600020905b81548152906001019060200180831161015357829003601f168201915b5050505050905090565b6000604051806040016040528084815260200183815250908060018154018082558091505060019003906000526020600020906002020160009091909190915060008201518160000190816101cf9190610921565b5060208201518160010190816101e59190610921565b5050503373ffffffffffffffffffffffffffffffffffffffff167f9954bce02f72fbdef0fa668ac6f42e434b5829615dac2fb22448054d2359d4f68360405161022e91906104f9565b60405180910390a25050565b6060600080815481106102505761024f6106dc565b5b9060005260206000209060020201600101805461026c9061073a565b80601f01602080910402602001604051908101604052809291908181526020018280546102989061073a565b80156102e55780601f106102ba576101008083540402835291602001916102e5565b820191906000526020600020905b8154815290600101906020018083116102c857829003601f168201915b5050505050905090565b600080600081548110610305576103046106dc565b5b906000526020600020906002020160000180546103219061073a565b905011610363576040517f08c379a000000000000000000000000000000000000000000000000000000000815260040161035a90610a3f565b60405180910390fd5b8160008081548110610378576103776106dc565b5b906000526020600020906002020160000190816103959190610921565b5080600080815481106103ab576103aa6106dc565b5b906000526020600020906002020160010190816103c89190610921565b503373ffffffffffffffffffffffffffffffffffffffff167fe5d18d6612696bff7df1db8015eac613241613297fa2ba2783993e4fd0e76f3d8360405161040f9190610aab565b60405180910390a23373ffffffffffffffffffffffffffffffffffffffff167fe5d18d6612696bff7df1db8015eac613241613297fa2ba2783993e4fd0e76f3d8260405161045d9190610b2c565b60405180910390a25050565b600081519050919050565b600082825260208201905092915050565b60005b838110156104a3578082015181840152602081019050610488565b60008484015250505050565b6000601f19601f8301169050919050565b60006104cb82610469565b6104d58185610474565b93506104e5818560208601610485565b6104ee816104af565b840191505092915050565b6000602082019050818103600083015261051381846104c0565b905092915050565b6000604051905090565b600080fd5b600080fd5b600080fd5b600080fd5b7f4e487b7100000000000000000000000000000000000000000000000000000000600052604160045260246000fd5b610571826104af565b810181811067ffffffffffffffff821117156105905761058f610539565b5b80604052505050565b60006105a361051b565b90506105af8282610568565b919050565b600067ffffffffffffffff8211156105cf576105ce610539565b5b6105d8826104af565b9050602081019050919050565b82818337600083830152505050565b6000610607610602846105b4565b610599565b90508281526020810184848401111561062357610622610534565b5b61062e8482856105e5565b509392505050565b600082601f83011261064b5761064a61052f565b5b813561065b8482602086016105f4565b91505092915050565b6000806040838503121561067b5761067a610525565b5b600083013567ffffffffffffffff8111156106995761069861052a565b5b6106a585828601610636565b925050602083013567ffffffffffffffff8111156106c6576106c561052a565b5b6106d285828601610636565b9150509250929050565b7f4e487b7100000000000000000000000000000000000000000000000000000000600052603260045260246000fd5b7f4e487b7100000000000000000000000000000000000000000000000000000000600052602260045260246000fd5b6000600282049050600182168061075257607f821691505b6020821081036107655761076461070b565b5b50919050565b60008190508160005260206000209050919050565b60006020601f8301049050919050565b600082821b905092915050565b6000600883026107cd7fffffffffffffffffffffffffffffffffffffffffffffffffffffffffffffffff82610790565b6107d78683610790565b95508019841693508086168417925050509392505050565b6000819050919050565b6000819050919050565b600061081e610819610814846107ef565b6107f9565b6107ef565b9050919050565b6000819050919050565b61083883610803565b61084c61084482610825565b84845461079d565b825550505050565b600090565b610861610854565b61086c81848461082f565b505050565b5b8181101561089057610885600082610859565b600181019050610872565b5050565b601f8211156108d5576108a68161076b565b6108af84610780565b810160208510156108be578190505b6108d26108ca85610780565b830182610871565b50505b505050565b600082821c905092915050565b60006108f8600019846008026108da565b1980831691505092915050565b600061091183836108e7565b9150826002028217905092915050565b61092a82610469565b67ffffffffffffffff81111561094357610942610539565b5b61094d825461073a565b610958828285610894565b600060209050601f83116001811461098b5760008415610979578287015190505b6109838582610905565b8655506109eb565b601f1984166109998661076b565b60005b828110156109c15784890151825560018201915060208501945060208101905061099c565b868310156109de57848901516109da601f8916826108e7565b8355505b6001600288020188555050505b505050505050565b7f5573657220646f6573206e6f7420657869737400000000000000000000000000600082015250565b6000610a29601383610474565b9150610a34826109f3565b602082019050919050565b60006020820190508181036000830152610a5881610a1c565b9050919050565b7f757365726e616d65000000000000000000000000000000000000000000000000600082015250565b6000610a95600883610474565b9150610aa082610a5f565b602082019050919050565b60006040820190508181036000830152610ac481610a88565b90508181036020830152610ad881846104c0565b905092915050565b7f70617373776f7264000000000000000000000000000000000000000000000000600082015250565b6000610b16600883610474565b9150610b2182610ae0565b602082019050919050565b60006040820190508181036000830152610b4581610b09565b90508181036020830152610b5981846104c0565b90509291505056fea26469706673582212209623a977e2a88667547e29fc37a3023e81724bab777478141c39715525e8056964736f6c63430008130033",
  "immutableReferences": {},
  "source": "pragma solidity ^0.8.0;\n\ncontract UserContract {\n    struct User {\n        string username;\n        string password;\n    }\n\n    // mapping(address => User) public users;\n    User[] users;\n\n    event UserCreated(address indexed userAddress, string username);\n    event UserUpdated(address indexed userAddress, string field, string value);\n\n    function createUser(\n        string memory _username,\n        string memory _password\n    ) public {\n        // require(bytes(users[0].username).length == 0, \"User already exists\");\n\n        // users[msg.sender] = User({username: _username, password: _password});\n        users.push(User(_username, _password));\n        emit UserCreated(msg.sender, _username);\n    }\n\n    function updateUser(\n        string memory _username,\n        string memory _password\n    ) public {\n        require(bytes(users[0].username).length > 0, \"User does not exist\");\n\n        users[0].username = _username;\n        users[0].password = _password;\n\n        emit UserUpdated(msg.sender, \"username\", _username);\n        emit UserUpdated(msg.sender, \"password\", _password);\n    }\n\n    function getUsername() public view returns (string memory) {\n        return users[0].username;\n    }\n\n    function getPassword() public view returns (string memory) {\n        return users[0].password;\n    }\n}\n\ncontract UserFactory {\n    UserContract[] public userContracts;\n\n    function createUserContract(\n        string memory _username,\n        string memory _password\n    ) external {\n        UserContract userContract = new UserContract();\n\n        userContract.createUser(_username, _password);\n\n        // emit UserCreated(user, users.length);\n\n        userContracts.push(userContract);\n\n        // return address(userContract);\n    }\n\n    function getUsername(address _address) public view returns (string memory) {\n        UserContract userContract;\n\n        for (uint i = 0; i < userContracts.length; i++) {\n            if (_address == address(userContracts[i])) {\n                userContract = userContracts[i];\n            }\n        }\n\n        return userContract.getUsername();\n\n        // emit UserCreated(user, users.length);\n\n        // userContracts.push(userContract);\n    }\n\n    function getPassword(address _address) public view returns (string memory) {\n        UserContract userContract = userContracts[0];\n\n        for (uint i = 0; i < userContracts.length; i++) {\n            if (_address == address(userContracts[i])) {\n                userContract = userContracts[i];\n            }\n        }\n\n        return userContract.getPassword();\n\n        // emit UserCreated(user, users.length);\n\n        // userContracts.push(userContract);\n    }\n\n    function getContractAddress() public view returns (address) {\n\n        return address(userContracts[userContracts.length - 1]);\n\n        // emit UserCreated(user, users.length);\n\n        // userContracts.push(userContract);\n    }\n\n    // event UserCreated(User user, uint256 index);\n}\n",
  "sourcePath": "C:\\Users\\onur\\OneDrive\\Masast\\Notlar\\IAMwBlockchain\\backend\\truffle\\contracts\\UserContract.sol",
  "compiler": {
    "name": "solc",
    "version": "0.8.19+commit.7dd6d404.Emscripten.clang"
  },
  "schemaVersion": "3.4.11",
  "updatedAt": "2023-05-22T15:30:54.718Z",
  "devdoc": {
    "kind": "dev",
    "methods": {},
    "version": 1
  },
  "userdoc": {
    "kind": "user",
    "methods": {},
    "version": 1
  }
}